{
    "_format": "hh-sol-artifact-1",
    "contractName": "Transactions",
    "sourceName": "contracts/Transactions.sol",
    "abi": [
        {
            "inputs": [],
            "stateMutability": "nonpayable",
            "type": "constructor"
        },
        {
            "inputs": [],
            "name": "donate",
            "outputs": [],
            "stateMutability": "payable",
            "type": "function"
        },
        {
            "inputs": [],
            "name": "getTotalDonations",
            "outputs": [
                {
                    "internalType": "uint256",
                    "name": "",
                    "type": "uint256"
                }
            ],
            "stateMutability": "view",
            "type": "function"
        },
        {
            "inputs": [],
            "name": "owner",
            "outputs": [
                {
                    "internalType": "address",
                    "name": "",
                    "type": "address"
                }
            ],
            "stateMutability": "view",
            "type": "function"
        },
        {
            "inputs": [],
            "name": "withdrawAll",
            "outputs": [],
            "stateMutability": "nonpayable",
            "type": "function"
        }
    ],
    "bytecode": "0x608060405234801561001057600080fd5b50336000806101000a81548173ffffffffffffffffffffffffffffffffffffffff021916908373ffffffffffffffffffffffffffffffffffffffff16021790555060006001819055506102dc806100686000396000f3fe60806040526004361061003f5760003560e01c8063777c658f14610044578063853828b61461006f5780638da5cb5b14610086578063ed88c68e146100b1575b600080fd5b34801561005057600080fd5b506100596100bb565b60405161006691906101ca565b60405180910390f35b34801561007b57600080fd5b506100846100c5565b005b34801561009257600080fd5b5061009b610152565b6040516100a891906101af565b60405180910390f35b6100b9610176565b005b6000600154905090565b60008060009054906101000a900473ffffffffffffffffffffffffffffffffffffffff16905060003090508173ffffffffffffffffffffffffffffffffffffffff166108fc8273ffffffffffffffffffffffffffffffffffffffff16319081150290604051600060405180830381858888f1935050505015801561014d573d6000803e3d6000fd5b505050565b60008054906101000a900473ffffffffffffffffffffffffffffffffffffffff1681565b346001600082825461018891906101e5565b92505081905550565b61019a8161023b565b82525050565b6101a98161026d565b82525050565b60006020820190506101c46000830184610191565b92915050565b60006020820190506101df60008301846101a0565b92915050565b60006101f08261026d565b91506101fb8361026d565b9250827fffffffffffffffffffffffffffffffffffffffffffffffffffffffffffffffff038211156102305761022f610277565b5b828201905092915050565b60006102468261024d565b9050919050565b600073ffffffffffffffffffffffffffffffffffffffff82169050919050565b6000819050919050565b7f4e487b7100000000000000000000000000000000000000000000000000000000600052601160045260246000fdfea26469706673582212207bf2ce65795bfbe48aee422250bd74bd912d9646a6528f93686672773c36a64a64736f6c63430008000033",
    "linkReferences": {},
    "deployedLinkReferences": {}
}